:02000000FE2FD1
:100EDE00831603138601051485140730831203133A
:100EEE009F0006108610061186118518B32F083044
:100EFE0086000B30F1006230F000F00B842FF10B06
:100F0E00842F000004308312031386000B30F1008F
:100F1E006230F000F00B912FF10B912F0000A230F8
:100F2E008312031386000B30F1006230F000F00BD9
:100F3E009E2FF10B9E2F00000130831203138600AB
:100F4E000B30F1006230F000F00BAB2FF10BAB2F3A
:100F5E0000008312031386010519EA2F0130860063
:100F6E001930F100AB30F000F00BBB2FF10BBB2FA3
:100F7E00C02F02308312031386001930F100AB30FC
:100F8E00F000F00BC82FF10BC82FCD2FA430831219
:100F9E00031386001930F100AB30F000F00BD52FA3
:100FAE00F10BD52FDA2F0830831203138600193078
:100FBE00F100AB30F000F00BE22FF10BE22FE72F38
:100FCE0083120313860105187C2F06141F30F200BE
:100FDE007130F1003B30F000F00BF32FF10BF32FDB
:100FEE00F20BF32F00008312031306107C2F8301E4
:020FFE006F2F53
:02400E0038FF79
:00000001FF
