:02000000FE2FD1
:100F7E0083160313850186018312031385018601EF
:100F8E0007309F0001308312031385001930F100E2
:100F9E00AB30F000F00BD12FF10BD12FD62F02304A
:100FAE008312031385001930F100AB30F000F00B03
:100FBE00DE2FF10BDE2FE32FA430831203138500F7
:100FCE001930F100AB30F000F00BEB2FF10BEB2FE3
:100FDE00F02F08308312031385001930F100AB3067
:100FEE00F000F00BF82FF10BF82FFD2FC92F830116
:020FFE00BF2F03
:02400E0038FF79
:00000001FF
