:02000000FE2FD1
:100F3E00831603138501860183120313850186012F
:100F4E0007309F008312031385010830F2009D3095
:100F5E00F1000B30F000F00BB22FF10BB22FF20BB1
:100F6E00B22FB92FFF308312031385000830F20021
:100F7E009D30F1000B30F000F00BC32FF10BC32F9F
:100F8E00F20BC32FCA2F03308312031385000830D0
:100F9E00F2009D30F1000B30F000F00BD42FF10B6E
:100FAE00D42FF20BD42FDB2FA53083120313850021
:100FBE000830F2009D30F1000B30F000F00BE52F01
:100FCE00F10BE52FF20BE52FEC2F093083120313F3
:100FDE0085000830F2009D30F1000B30F000F00B70
:100FEE00F62FF10BF62FF20BF62FFD2FA92F830103
:020FFE009F2F23
:02400E0038FF79
:00000001FF
