:02000000FE2FD1
:100F6E0083160313860105148514073083120313A9
:100F7E009F0006108610061186118518D72F0614AD
:100F8E001030F2003930F1001B30F000F00BCD2F95
:100F9E00F10BCD2FF20BCD2FD42F8312031306108E
:100FAE000519EA2F06140630F2001330F100B130A5
:100FBE00F000F00BE02FF10BE02FF20BE02FE72FFC
:100FCE008312031306100518C42F06141F30F200E7
:100FDE007130F1003B30F000F00BF32FF10BF32FDB
:100FEE00F20BF32F0000831203130610C42F83019C
:020FFE00B72F0B
:02400E0038FF79
:00000001FF
