:02000000FE2FD1
:100F120083160313860105140730831203139F00FF
:100F22000610C52F083086000B30F1006230F00049
:100F3200F00B992FF10B992F000004308312031349
:100F420086000B30F1006230F000F00BA62FF10B9F
:100F5200A62F0000A2308312031386000B30F1008B
:100F62006230F000F00BB32FF10BB32F0000013011
:100F72008312031386000B30F1006230F000F00B95
:100F8200C02FF10BC02F000083120313051C932FF7
:100F920001308312031386001930F100AB30F000E8
:100FA200F00BD12FF10BD12FD62F02308312031366
:100FB20086001930F100AB30F000F00BDE2FF10BA0
:100FC200DE2FE32FA4308312031386001930F100C1
:100FD200AB30F000F00BEB2FF10BEB2FF02F0830C2
:100FE2008312031386001930F100AB30F000F00BCE
:0E0FF200F82FF10BF82FFD2FC52F8301892F4B
:02400E0038FF79
:00000001FF
