:02000000FE2FD1
:100DEE0083120313850186010800FF30831203135B
:100DFE008500FF30860008008316031385018601E7
:100E0E00831203138501860107309F00FC26C33031
:100E1E00F100CD30F000F00B122FF10B122FF72650
:100E2E00C330F100CD30F000F00B1B2FF10B1B2F58
:100E3E00FC260230F2004530F100A930F000F00B34
:100E4E00262FF10B262FF20B262F2D2FF7260230F1
:100E5E00F2004530F100A930F000F00B342FF10B09
:100E6E00342FF20B342F3B2FFC269C30F100D73061
:100E7E00F000F00B402FF10B402FF7269C30F100C5
:100E8E00D730F000F00B492FF10B492FFC264130E3
:100E9E00F100EE30F000F00B522FF10B522F00004C
:100EAE00F7264130F100EE30F000F00B5C2FF10B25
:100EBE005C2F0000FC262130F1007630F000F00BA4
:100ECE00662FF10B662F0000F7262130F1007630E9
:100EDE00F000F00B702FF10B702F0000FC2682300B
:100EEE00F100DD30F000F00B7A2FF10B7A2F7F2F0F
:100EFE00F7268230F100DD30F000F00B842FF10B7D
:100F0E00842F892FFC260730F1007D30F000F00B86
:100F1E008E2FF10B8E2FF7260730F1007D30F0006B
:100F2E00F00B972FF10B972FFC260330F100973023
:100F3E00F000F00BA02FF10BA02FA52FF7260330FA
:100F4E00F1009730F000F00BAA2FF10BAA2FAF2F64
:100F5E00FC264B30F1000530F000F00BB42FF10BF6
:100F6E00B42FF7264B30F1000530F000F00BBD2FFB
:100F7E00F10BBD2FFC264130F100EE30F000F00BEE
:100F8E00C62FF10BC62F0000F7264130F100EE30D0
:100F9E00F000F00BD02FF10BD02F0000FC2682308A
:100FAE00F100DD30F000F00BDA2FF10BDA2FDF2F2E
:100FBE00F7268230F100DD30F000F00BE42FF10B5C
:100FCE00E42FE92FFC262130F1007630F000F00BF3
:100FDE00EE2FF10BEE2F0000F7262130F1007630C8
:100FEE00F000F00BF82FF10BF82F00000D2F8301FE
:020FFE00032FBF
:02400E0038FF79
:00000001FF
